:020000040000FA
:06000000F3EF03F0120013
:0600080004EF08F01200F5
:02000E00FCFCF8
:06001000FC0004040400E2
:060018000CEF08F01200DD
:02001E000100DF
:0C0020000E1000009E0000000400000014
:04002C00DACFE4FF44
:10003000E2CFDAFFE9CFE4FFEACFE4FFF6CFE4FF57
:10004000F7CFE4FFF5CFE4FFF3CFE4FFF4CFE4FF15
:10005000FACFE4FF00EE00F00B0EE80403E3EECF6E
:10006000E4FFFBD700EE0BF0030EE80403E3EECF52
:10007000E4FFFBD7E65261EC08F0E55200EE0DF02C
:10008000030EE80403E3E5CFEDFFFBD700EE0AF033
:100090000B0EE80403E3E5CFEDFFFBD7E5CFFAFF56
:1000A000E5CFF4FFE5CFF3FFE5CFF5FFE5CFF7FFB1
:1000B000E5CFF6FFE5CFEAFFE5CFE9FFE5CFDAFFD1
:1000C0001100D8CFE4FFE0CFE4FFE46EDACFE4FF25
:1000D000E652E552E5CFDAFFE550E5CFE0FFE5CFA8
:1000E000D8FF100004D80CEC10F01AD8FED7010E7F
:1000F000C26E0B0EC16E350EC06E3F0E926E936EC9
:10010000CF0E946E02D80FEF08F000018B6B8BC0FE
:100110008AF08BC089F0010E876F8C6B8D6B12009B
:10012000200E0001605D05E36D50020B01E012003E
:1001300001D81200D9CFE6FFE1CFD9FF050EE126A5
:100140008150100B09E1040EDB0406E100019F71F0
:100150008A7E040EDB6A08D08150100B01E0010E8C
:10016000E76E040EE7CFDBFF00019F516DE18A9E31
:1001700004017F0E356F366F81B403D0020EDB6A47
:1001800012D081B603D0020EF36E0BD081B002D034
:10019000040E05D081B202D0060E01D0080EF36E17
:1001A000020EF3CFDBFF8150040B05E18150080BF9
:1001B00002E1010E17D08150080B05E18150010BBF
:1001C00002E1030E0FD08150010B05E18150020BBB
:1001D00002E1050E07D08150020B08E18150040BAB
:1001E00005E1070EF36E020EF3CFDBFF020EDB50CC
:1001F000080A26E00F0A21E0010A1CE0030A17E0C2
:10020000010A12E0070A0EE0010A0AE0030A06E00A
:10021000010A01E0A2D07F0E336F10D033690ED0F7
:10022000336909D0336904D07F0E336F01D0336B4B
:10023000346993D0336B7F0E05D0336B346B8DD024
:100240007F0E336F346F89D08A8E81B403D004015E
:10025000376B12D081B603D00401020E0CD081B0EE
:1002600003D00401040E07D081B203D00401060EAE
:1002700002D00401080E376F8150040B05E1815054
:10028000080B02E1010E17D08150080B05E18150E7
:10029000010B02E1030E0FD08150010B05E18150EB
:1002A000020B02E1050E07D08150020B05E18150DF
:1002B000040B02E1070E376F0001A151030A38E079
:1002C000010A28E0030A18E0010A3FE1A05105E114
:1002D000090EC26EC282010EA06FC2B236D0A06BF0
:1002E000C4500B6E0C6AFF0ED8800B56000E0C56D5
:1002F0000BC08EF0010E1AD0A05105E10D0EC26E9A
:10030000C282010EA06FC2B220D0A06BC4CF8FF00A
:10031000020E0CD0A05104E1010EC26EC282A06F89
:10032000C2B213D0A06BC4CF90F0030EA16F0DD05A
:10033000A05105E1050EC26EC282010EA06FC2B2CD
:1003400004D0A06BC4CF91F0A16B8EC033F48FC0EA
:1003500034F490C035F491C036F40401386B82BE99
:1003600002D0388101D0389182B202D0388301D0D6
:10037000389382BC02D0388501D0389582B402D03F
:10038000388701D0389780B802D0388901D03899A1
:1003900081BA02D0388B01D0389B80BA02D0388D18
:1003A00001D0389D82B002D0388F01D0389F000133
:1003B0008C518D1102E1000E08D08CC0E9FF8DC078
:1003C000EAFFEF50800B01E0010E000913E1060E79
:1003D000E66E330EE66E040EE66E010EE66EE66E17
:1003E00081EC0FF00B6E050EE15E0B50F3CF8CF03D
:1003F000F4CF8DF0050EE15C02E2E16AE552E16EB8
:10040000E552E7CFD9FF1200D9CFE6FFE1CFD9FF00
:10041000FE0EDB50010BE8B0C284E8A0C294FE0ED1
:10042000DB50020BE8407F0BE8B0C286E8A0C29622
:10043000FE0EDB50040BE840E8403F0BE8B0C288FA
:10044000E8A0C298FE0EDB50080BE840E840E84008
:100450001F0BE8B0C28AE8A0C29AE552E7CFD9FFE5
:10046000120012001200120012000DEF03F0120031
:100470001A0EE66E010EE66EDDEC0EF0E552E55268
:1004800012006D840001080E926F070E936F9207A1
:10049000000E935B92519311FAE16D941200D9CF43
:1004A000E6FFE1CFD9FFFD0EDBCF06F0FE0EDBCF7E
:1004B00007F0010E061801E1075033E0E86806185E
:1004C00002E1E86807182BE0030E061801E1075067
:1004D00024E0040E061801E107501DE0020E061884
:1004E00001E1075016E0170E061801E107500FE072
:1004F000160E061801E1075008E0150E061801E176
:10050000075001E010D0B4DF0FD0B1DF0DD0ADDF68
:100510000BD0A9DF09D0A5DF07D0A4DF05D0A4DF69
:1005200003D0000001D000D0010E00D0E552E7CF8B
:04053000D9FF1200DD
:0C0534001201000200000008D8041A00A8
:100540000701010200010902260001010080FA09E9
:1005500004000001030100000921100121012243D0
:10056000000705810308000A0403090434034D0051
:100570006900630072006F0063006800690070002A
:10058000200054006500630068006E006F006C007E
:100590006F0067007900200049006E0063002E00A4
:1005A0002E0343007900740072006F006E0020007B
:1005B000470061006D006500200043006F006E0081
:1005C000740072006F006C006C0065007200050121
:1005D0000904A101A10275089504150026FF003544
:1005E0000046FF00093009310932093581027508DA
:1005F00095012507463B016514093981426500755F
:10060000019508250145010509190129088102C044
:09061000C0460568056C05A00553
:06061A00040120511F0B3A
:10062000010801E01200245101E01200060E215DD4
:1006300021E12351230A1BE0010A0CE0030A1AE11D
:100640000001610517E10001580E716F050E726F10
:10065000090E09D0000161050DE10001CE0E716F98
:10066000050E726F430E746F756BC00E02D00001E1
:10067000800E736F04012051600BE842E842E842AB
:10068000E842E842010801E0120021510B0A2AE089
:10069000080A1DE0090A15E0080A09E00B0A05E04E
:1006A000080A01E0120078EF03F079EF03F000018F
:1006B000A20E716F000E726F010E746F756BC10E1A
:1006C0000FD00001800E736F23C4A2F0120000014E
:1006D000A30E716F000E726F010E746F756B810E39
:1006E000736F12000001800E736F22C4A3F012001A
:0406F00012001200E2
:0C06F4001E0EF66E000EF76E000EF86E83
:1007000000010900F550996F0900F5509A6F03E157
:10071000996701D03DD00900F550946F0900F5505C
:10072000956F0900F550966F09000900F550E96EC4
:100730000900F550EA6E090009000900F550976FAD
:100740000900F550986F09000900F6CF9BF0F7CF2C
:100750009CF0F8CF9DF094C0F6FF95C0F7FF96C0CF
:10076000F8FF0001975302E1985307E00900F550A4
:10077000EE6E9707F8E29807F9D79BC0F6FF9CC08A
:10078000F7FF9DC0F8FF00019907000E9A5BBFD7E5
:02079000120055
:0E079200FE0EE3CFE9FFFF0EE3CFEAFFE9CF53
:1007A000F3FFEACFF4FFFB0EE35003E1FC0EE3504E
:1007B00009E0FB0EE30602E2FC0EE306FD0EE35049
:0607C000EE6EF1D71200FD
:0A07C600000EF36E00EE00F0080EC6
:1007D00001D81200EA6002D0EE6AFCD7F350E9605B
:0607E0001200EE6AFCD7D6
:0A07E60013EE00F023EE00F0F86AB5
:1007F0000A9C7AEC03F003EC08F072EC00F0FBD7F3
:020800001200E4
:06100000F3EF03F0120003
:021006001200D6
:0610080016EF00F01200DB
:02100E000000E0
:021010000000DE
:0610180061EF00F0120080
:02101E00D9CF28
:10102000E6FFE1CFD9FFE6526A6A686A6D8C6D9C73
:101030006E6A000EE66EE66AE66A710EE66E0F0EE6
:10104000E66EC9EC03F00B6E050EE15E0B50DF6A35
:10105000DF500B6E0C6A080E0B5C000E0C5810E291
:10106000DF50040DF3CFE9FFF4CFEAFF000EE926CD
:10107000040EEA22EE6AEE6AEE6AEE6ADF2AE8D72A
:10108000160E706E68A60CD0030EE66E680EE66E45
:101090000F0EE66EF0EC0FF0E552E552E552F2D796
:1010A0000001736B786B796B7A6B6D98080E6B6FC0
:1010B000040E6C6F616B606BE552E552E7CFD9FFB0
:1010C0001200D9CFE6FFE1CFD9FFE652A19A000185
:1010D000600507E16DBA05D0686A69806988020E0B
:1010E000606F6850040B0FE06950040B0CE0020EB7
:1010F000E66E680EE66E0F0EE66EF0EC0FF0E5524F
:10110000E552E552E3D86DB29DD06850010B1BE06B
:101110006950010B18E083DF0001040E606F0401C9
:10112000200E026F040E036F080E016F006B8C0E11
:101130000013E66A680EE66E0F0EE66EF0EC0FF036
:10114000E552E552E5526850100B0FE06950100B64
:101150000CE0A0D8040EE66E680EE66E0F0EE66E8A
:10116000F0EC0FF0E552E552E5526850400B1DE0FF
:101170006950400B1AE0010EE66EE66A000EE66E5C
:10118000E66A020EE66EE66A4FEC02F00B6E060EA1
:10119000E15E0B50060EE66E680EE66E0F0EE66E12
:1011A000F0EC0FF0E552E552E5526850200B04E0F8
:1011B0006950200B01E04BD86850020B12E06950D7
:1011C000020B0FE0010EE66EE66A000EE66EE66ABE
:1011D000E668E6684FEC02F00B6E060EE15E0B501F
:1011E0006A6A040E0001605D2DE369A62BD0DF6AF8
:1011F000040EDF5C27E268A625D06CCF80F0030EDA
:10120000E66E680EE66E0F0EE66EF0EC0FF0E5523D
:10121000E552E552780E0001801502E176D810D033
:10122000000EE66EE66A800EE66E000EE66E010EB9
:10123000E66EE66A4FEC02F00B6E060EE15E0B50B6
:10124000DF2AD6D7E552E552E7CFD9FF120070A0CA
:1012500015D063C0E9FF64C0EAFFEF5080080DE1DC
:101260006BC0E9FF6CC0EAFFEF50840806E163C081
:10127000E9FF64C0EAFF8C0EEF6E7090050EE66E1B
:10128000680EE66E0F0EE66EF0EC0FF0E552E552DA
:10129000E55212006984040EE66E680EE66E0F0ECB
:1012A000E66EF0EC0FF0E552E552E5526D82000E6D
:1012B000E66EE66AE66EE66A040EE66EE66A4FECF5
:1012C00002F00B6E060EE15E0B5012006D92000EE6
:1012D000E66EE66AE66EE66A030EE66EE66A4FECD6
:1012E00002F00B6E060EE15E0B50699468A40CD000
:1012F000020EE66E680EE66E0F0EE66EF0EC0FF074
:10130000E552E552E552F2D71200FD0E00018015BC
:1013100020E17E0E8015E8407F0B040DF3CF63F0D3
:10132000F4CF64F0000E6327040E642363C065F0FD
:1013300064C066F0657563C0E9FF64C0EAFFEF5002
:101340003C0BE842E8420D0802E1AFEF09F0D2EFB2
:1013500009F0FD0E8015040801E12CD812006BC0C5
:10136000E9FF6CC0EAFFEF50800B05E06BC0E9FFBE
:101370006CC0EAFFEF6A00016F6B706B746B756B8A
:10138000736BFFD8000EE66EE66AE66EE66A170E2D
:10139000E66EE66A4FEC02F00B6E060EE15E0B5055
:1013A00057EF0CF0020E0001705D02E1AFEF0DF09F
:1013B00024EF0AF0D9CFE6FFE1CFD9FFE6526BC0A8
:1013C000E9FF6CC0EAFFEF50400B01E0010EDF6E59
:1013D00000016B75080E605D09E122C46EFF6E505E
:1013E000000802E2100E01D0040E606F700526E1C5
:1013F0006BC0E9FF6CC0EAFF020EE926000EEA228C
:10140000280EEE6E040EED6E21DB020E00016F5D04
:1014100006E16BC0E9FF6CC0EAFF840E0DD0DF501F
:1014200006E16BC0E9FF6CC0EAFFC80E05D06BC0D7
:10143000E9FF6CC0EAFF880EEF6E01D005D8E552D7
:10144000E552E7CFD9FF1200D9CFE6FFE1CFD9FFB0
:10145000030EE126020E0001705D49E16D50100B94
:1014600046E063C0E9FF64C0EAFFEE52EF500B6E46
:101470000C6A080E0B183BE10C5039E163C0E9FF20
:1014800064C0EAFFEF503C0BE842E8420D082FE150
:1014900065C0E9FF66C0EAFFEF50800B28E165C038
:1014A000E9FF66C0EAFF020EE926000EEA22200EDE
:1014B000EE6E040EED6EDF6ADF500B6E0C6A080EE6
:1014C0000B5C000E0C5844E2DF50EA6A280FE96E0C
:1014D000040EEA22EF50E66EDF50EA6A200FE96E52
:1014E000040EEA22E552E750EF6EDF2AE5D7706B73
:1014F00065C0E9FF66C0EAFFEE52080EEF6E65C0F8
:10150000E9FF66C0EAFF020EE926000EEA22200E7D
:10151000EE6E040EED6E65C0E9FF66C0EAFF8C0E4C
:10152000EF6E6BC0E9FF6CC0EAFFEF6A040E6B1947
:101530000B6E6CC00CF0010E0BC0DBFF020E6CC01A
:10154000DBFF010EDBCFE9FF020EDBCFEAFFEF6A24
:10155000000178AF0CD07B517C1107E005D07CC036
:10156000FAFF00017B51F96EFADF0001789F030E4C
:10157000E15C02E2E16AE552E16EE552E7CFD9FFB4
:10158000120004012051600BE842E842E842E842C0
:10159000E842000901E0120021510C0A50E00B0A58
:1015A0003FE00C0A31E0010A22E00B0A1EE0020AC9
:1015B0001CE0030A18E0080A10E0010A0CE00F0A18
:1015C00008E0030A01E012000001738F080E606F4B
:1015D0001200A6EF0BF03FEF0EF00001610E716FED
:1015E000000E726F0CD0FDEF0BF020EF0BF02451CA
:1015F0000001716F726B620E7127000E722373818E
:10160000010E746F738F12000001738F0401245157
:10161000EA6A620FE96E000EEA2222C4EFFF1200AE
:10162000000EE66EE66AE66EE66A160EE66EE66A9C
:101630004FEC02F00B6E060EE15E0B501200120032
:10164000D9CFE6FFE1CFD9FF040EE1260401220540
:1016500010E120511F0B00090CE10001738F030EF4
:101660000401215D04E10001010E7F6F02D0000141
:101670007F6B0401225160E120511F0B02085CE1E5
:1016800024510F0B000958E00001738F040124BF9F
:101690000BD024510F0BE96EEA6AD890E936EA368E
:1016A000670EE926000E0AD024510F0BE96EEA6A94
:1016B000D890E936EA366B0EE926000EEA22EECF24
:1016C000DEFFEDCFDDFF030E215D06E1DECFE9FF9A
:1016D000DDCFEAFF840E2FD024510F0B0C6A700F60
:1016E0000B6E0F0E0C22020E0BC0DBFF030E0CC0A4
:1016F000DBFF020EDBCFE9FF030EDBCFEAFFEE904C
:10170000ED5224AF0CD0DECFE9FFDDCFEAFFEF6A68
:10171000DF74DECFE9FFDDCFEAFF400E0CD0DECF75
:10172000E9FFDDCFEAFF880EEF6EDF74DECFE9FF61
:10173000DDCFEAFFC80EEF6E040EE15C02E2E16A63
:10174000E552E16EE552E7CFD9FF1200800E0401A9
:10175000205D52E10001C00E736F04012351030AA2
:1017600029E0010A09E0030A45E10001340E716F26
:10177000050E726F120E38D02251F66EF76AD890AD
:10178000F636F736110EF626060EF7220900F5CFCB
:1017900071F00A00F5CF72F0020E0001F76A7125B0
:1017A000F66E7251F7220900F5CF74F00A00F5CFFA
:1017B00075F01200030E225D1AE22251F66EF76AEE
:1017C000D890F636F736130EF626060EF7220900E5
:1017D000F5CF71F00A00F5CF72F071C0F6FF72C05C
:1017E000F7FF0800F5500001746F756B12000001DF
:1017F000736B12000001736B1200D9CFE6FFE1CFCB
:10180000D9FF020EE1260401286B296B20511F0B22
:10181000020A11E0030A0CE0010A35E10001738FAE
:101820000401288100017F052EE1040128832BD0CB
:101830000001738F28D00001738F040124BF0BD0E7
:1018400024510F0BE96EEA6AD890E936EA36670E42
:10185000E926000E0AD024510F0BE96EEA6AD890EF
:10186000E936EA366B0EE926000EEA22EECFDEFFFD
:10187000EDCFDDFFDECFE9FFDDCFEAFFEF50040B58
:1018800002E0010E286F000173AF07D0280E716FC0
:10189000040E726F7381020E746F020EE15C02E23D
:1018A000E16AE552E16EE552E7CFD9FF12006D988B
:1018B000000173BF47D078AF26D0020E706F6BC0A7
:1018C000E9FF6CC0EAFFEE52EF6A6BC0E9FF6CC043
:1018D000EAFFC80EEF6E65C0E9FF66C0EAFFEE5290
:1018E000080EEF6E65C0E9FF66C0EAFF020EE9264A
:1018F000000EEA22280EEE6E040EED6E65C0E9FFC2
:1019000066C0EAFF77D065C0E9FF66C0EAFFEE5225
:10191000080EEF6E65C0E9FF66C0EAFF020EE92619
:10192000000EEA22200EEE6E040EED6E65C0E9FF99
:1019300066C0EAFF8C0EEF6E6BC0E9FF6CC0EAFF79
:10194000840E59D078BF81D0040120AF56D0000159
:1019500074510401265D000175510401275904E208
:1019600026C474F027C475F071D80001010E706FA1
:1019700065C0E9FF66C0EAFFEE52080EEF6E65C073
:10198000E9FF66C0EAFF020EE926000EEA22200EF9
:10199000EE6E040EED6E65C0E9FF66C0EAFF800ED4
:1019A000EF6E63C0E9FF64C0EAFFEE52080EEF6E0F
:1019B00063C0E9FF64C0EAFF020EE926000EEA22D6
:1019C000200EEE6E040EED6E63C0E9FF64C0EAFF08
:1019D000800EEF6E6BC0E9FF6CC0EAFF020EE926D5
:1019E000000EEA22280EEE6E040EED6E6BC0E9FFCB
:1019F0006CC0EAFFC80EEF6E12000001020E706F9D
:101A00006BC0E9FF6CC0EAFFEE52EF6A6BC0E9FF02
:101A10006CC0EAFFC80EEF6E65C0E9FF66C0EAFF62
:101A2000EE52080EEF6E65C0E9FF66C0EAFF020ED7
:101A3000E926000EEA22280EEE6E040EED6E65C059
:101A4000E9FF66C0EAFFC80EEF6E1200D9CFE6FFCD
:101A5000E1CFD9FF020EE1260001080E745D000EF1
:101A600075590DE274C0DEFF75C0DDFF6F5102E1F4
:101A7000010E03D06F0506E1020E6F6F03D0080E52
:101A8000DE6EDD6A6BC0E9FF6CC0EAFFEF926BC0EF
:101A9000E9FF6CC0EAFFEF906BC0E9FF6CC0EAFFA2
:101AA000010EDB50EF126BC0E9FF6CC0EAFFEE5293
:101AB000DFCFEFFF000EDB50745F010EDB50755B74
:101AC000280E7D6F040E7E6F73B120D0D9CFE9FF51
:101AD000DACFEAFFEE50ED1038E071C0F6FF72C0C9
:101AE000F7FF712B000E72230800F550E66E7DC0E3
:101AF000E9FF7EC0EAFF7D2B000E7E23E552E75012
:101B0000EF6EDF06010EE2E2DB06E0D7D9CFE9FF98
:101B1000DACFEAFFEE50ED1018E071C0E9FF72C0B5
:101B2000EAFF712B000E7223EF50E66E7DC0E9FFD5
:101B30007EC0EAFF7D2B000E7E23E552E750EF6E5C
:101B4000DF06010EE3E2DB06E1D7020EE15C02E212
:101B5000E16AE552E16EE552E7CFD9FF1200D9CF35
:101B6000E6FFE1CFD9FF020EE12663C0E9FF64C0C2
:101B7000EAFFEE52EFCFDFFFDFCF0BF00B5000019B
:101B8000795D000E7A5903E279C0DFFF09D0DF509A
:101B90000B6E0C6AE850795D796F0C507A597A6F48
:101BA000010EDB6ADF50F36E010EDBCFF4FFF35062
:101BB000F45C16E2010EDB50EA6A280FE96E040EAF
:101BC000EA22EF50E66E76C0E9FF77C0EAFF762B97
:101BD000000E7723E552E750EF6E010EDB2AE2D7C5
:101BE000000ED8807955000E7A5527E265C0E9FFCE
:101BF00066C0EAFFEE52080EEF6E65C0E9FF66C0F0
:101C0000EAFF020EE926000EEA22280EEE6E040E0E
:101C1000ED6E63C0E9FF64C0EAFFEF50400B06E1E0
:101C200065C0E9FF66C0EAFFC80E05D065C0E9FFE0
:101C300066C0EAFF880EEF6E18D065C0E9FF66C087
:101C4000EAFF020EE926000EEA22200EEE6E040ED6
:101C5000ED6E7B517C1107E005D07CC0FAFF0001DE
:101C60007B51F96EFADF0001789F020EE15C02E21F
:101C7000E16AE552E16EE552E7CFD9FF12000001BB
:101C8000738F000EE66EE66AE66A710EE66E0F0E60
:101C9000E66EC9EC03F00B6E050EE15E0B50010E13
:101CA000E66EE66AE66A620EE66E000EE66EC9EC65
:101CB00003F00B6E050EE15E0B5022C461F00401CF
:101CC000225104E10001100E606F12000001200E8D
:101CD000606F000EE66EE66AE66EE66A150EE66E68
:101CE000E66A4FEC02F00B6E060EE15E0B5012003E
:101CF000D9CFE6FFE1CFD9FF020EE126000EDE6E5E
:101D0000040EDD6EFD0EDB50E8240D6EFE0EDB5082
:101D1000040DF3500D24040DF3500B6E0C6A020EEB
:101D20000F0B05E0D8900C320B32E806FBE1D8909F
:101D30000B360C36D8900B360C36D9CFE9FFDACFFC
:101D4000EAFF0B50EE260C50ED22DECFE9FFDDCF8F
:101D5000EAFFEF9EFD0EDB500AE1FE0EEA6ADB347D
:101D6000FE0BEA36E96E670EE926000E09D0FE0E7C
:101D7000EA6ADB34FE0BEA36E96E6B0EE926000EEA
:101D8000EA22DECFEEFFDDCFEDFFDECFE9FFDDCFD4
:101D9000EAFFEF9CDECFE9FFDDCFEAFF040EE92684
:101DA000000EEA22EF8C020EE15C02E2E16AE552EB
:101DB000E16EE552E7CFD9FF1200D9CFE6FFE1CFC0
:101DC000D9FF020EE126FE0EDB500C6A700F0B6E7F
:101DD0000F0E0C220BC0DEFF0CC0DDFFDECFE9FFD3
:101DE000DDCFEAFFFD0EDBCFEFFFDBA407D0E66A15
:101DF000FE0EDBCFE6FF7CDFE552E552FD0EDBA2F7
:101E000008D0010EE66EFE0EDBCFE6FF71DFE55275
:101E1000E552020EE15C02E2E16AE552E16EE55252
:101E2000E7CFD9FF1200D9CFE6FFE1CFD9FF020EED
:101E3000E126FE0EDB5020E165C0E9FF66C0EAFF47
:101E4000EE52080EEF6E65C0E9FF66C0EAFF020EB3
:101E5000E926000EEA22200EEE6E040EED6E65C03D
:101E6000E9FF66C0EAFF8C0EEF6E6BC0E9FF6CC045
:101E7000EAFF840EEF6E3BD0FD0EDB50E8240D6EC2
:101E8000FE0EDB50040DF3500D24040DF3CF0BF0C8
:101E9000F4CF0CF0000E0B26040E0C220BC0DEFF5C
:101EA0000CC0DDFF840EDECFE9FFDDCFEAFFE85096
:101EB000EF12FD0EDB50E8240D6EFE0EDB50040D1C
:101EC000F3500D24010F040DF3CF0BF0F4CF0CF001
:101ED000000E0B26040E0C220BC0DEFF0CC0DDFF33
:101EE000840EDECFE9FFDDCFEAFFE850EF12020EED
:101EF000E15C02E2E16AE552E16EE552E7CFD9FF2B
:101F00001200D9CFE6FFE1CFD9FF020EE126FD0E88
:101F1000DB500AE0FE0EEA6ADB34FE0BEA36E96EBD
:101F20006B0EE926000E09D0FE0EEA6ADB34FE0BCA
:101F3000EA36E96E670EE926000EEA22EECFDEFFF2
:101F4000EDCFDDFFDECFE9FFDDCFEAFF020EE926B0
:101F5000000EEA22FB0EDBCFEEFFFC0EDBCFEDFF27
:101F6000DECFE9FFDDCFEAFFEE52FA0EDBCFEFFF67
:101F7000400EDECFE9FFDDCFEAFFE850EF16880E16
:101F8000DECFE9FFDDCFEAFFE850EF12FD0EDB50B8
:101F90000AE0FE0EEA6ADB34FE0BEA36E96E6B0EEF
:101FA000E926000E09D0FE0EEA6ADB34FE0BEA36A3
:101FB000E96E670EE926000EEA22EF74DECF0BF021
:101FC000DDCF0CF00BC0F3FF0CC0F4FF020EE15CA0
:101FD00002E2E16AE552E16EE552E7CFD9FF120075
:101FE000D9CFE6FFE1CFD9FF010EF36EFC0EDB5037
:101FF00004E0D890F336E806FCE1F31C0B6EFD0E0E
:10200000DBCFE9FFFE0EDBCFEAFF0B50EF16E55208
:10201000E7CFD9FF120012000001605111E16D6A93
:10202000696A6DB602D06D86FCD70001010E606F43
:10203000160E6F6ED08E3B0E696EA28AA08AF28E4B
:0220400012008C
:020000040030CA
:0100000024DB
:010001000EF0
:010002003FBE
:010003001EDE
:010005008179
:010006008178
:010008000FE8
:01000900C036
:01000A000FE6
:01000B00E014
:01000C000FE4
:01000D0040B2
:00000001FF
