:020000040000FA
:060000006BEF14F012008A
:0600080004EF08F01200F5
:060018000CEF08F01200DD
:061000006BEF14F012007A
:0610080069EF10F0120078
:06101800B4EF10F012001D
:06102A0001000A2900008C
:081030009E0000000400000016
:08103800D9CFE6FFE1CFD9FF9B
:10104000E6526A6A686A6D8C6D9C6E6A000EE66E86
:10105000E66AE66A710EE66E0F0EE66E51EC14F06B
:101060000B6E050EE15E0B50DF6ADF500B6E0C6AF3
:10107000080E0B5C000E0C5810E2DF50040DF3CF8D
:10108000E9FFF4CFEAFF000EE926040EEA22EE6A39
:10109000EE6AEE6AEE6ADF2AE8D7160E706E68A670
:1010A0000CD0030EE66E680EE66E0F0EE66E31ECA7
:1010B00010F0E552E552E552F2D70001736B786B00
:1010C000796B7A6B6D98080E6B6F040E6C6F616BA9
:1010D000606BE552E552E7CFD9FF1200D9CFE6FFAA
:1010E000E1CFD9FFE652A19A0001600507E16DBA90
:1010F00005D0686A69806988020E606F6850040BC9
:101100000FE06950040B0CE0020EE66E680EE66E0E
:101110000F0EE66E31EC10F0E552E552E552E5D8DF
:101120006DB29FD06850010B1BE06950010B18E0B5
:1011300083DF0001040E606F0401200E026F040EB5
:10114000036F080E016F006B8C0E0013E66A680EC9
:10115000E66E0F0EE66E31EC10F0E552E552E55208
:101160006850100B0FE06950100B0CE0A2D8040E71
:10117000E66E680EE66E0F0EE66E31EC10F0E5528C
:10118000E552E5526850400B1DE06950400B1AE0F3
:10119000010EE66EE66A000EE66EE66A020EE66E86
:1011A000E66ACEEC12F00B6E060EE15E0B50060EF8
:1011B000E66E680EE66E0F0EE66E31EC10F0E5524C
:1011C000E552E5526850200B04E06950200B01E025
:1011D0004DD86850020B12E06950020B0FE0010E6F
:1011E000E66EE66A000EE66EE66AE668E668CEEC53
:1011F00012F00B6E060EE15E0B506A6A040E0001DF
:10120000605D01E22ED069A62CD0DF6A040EDF5C9F
:1012100028E268A625D06CCF80F0030EE66E680E3B
:10122000E66E0F0EE66E31EC10F0E552E552E55237
:10123000780E0001801502E177D810D0000EE66E1E
:10124000E66A800EE66E000EE66E010EE66EE66A57
:10125000CEEC12F00B6E060EE15E0B50DF2AD6D7F5
:1012600000D0E552E552E7CFD9FF120070A015D0AB
:1012700063C0E9FF64C0EAFFEF5080080DE16BC076
:10128000E9FF6CC0EAFFEF50840806E163C0E9FFA4
:1012900064C0EAFF8C0EEF6E7090050EE66E680E6D
:1012A000E66E0F0EE66E31EC10F0E552E552E552B7
:1012B00012006984040EE66E680EE66E0F0EE66E8E
:1012C00031EC10F0E552E552E5526D82000EE66E0B
:1012D000E66AE66EE66A040EE66EE66ACEEC12F0A8
:1012E0000B6E060EE15E0B5012006D92000EE66E64
:1012F000E66AE66EE66A030EE66EE66ACEEC12F089
:101300000B6E060EE15E0B50699468A40CD0020EC1
:10131000E66E680EE66E0F0EE66E31EC10F0E552EA
:10132000E552E552F2D71200FD0E0001801520E1D2
:101330007E0E8015E8407F0B040DF3CF63F0F4CFF1
:1013400064F0000E6327040E642363C065F064C07C
:1013500066F0657563C0E9FF64C0EAFFEF503C0BBF
:10136000E842E8420D0802E109D801D02AD805D0A8
:10137000FD0E8015040801E12DD812006BC0E9FFB5
:101380006CC0EAFFEF50800B05E06BC0E9FF6CC05A
:10139000EAFFEF6A00016F6B706B746B756B736BB8
:1013A00004D9000EE66EE66AE66EE66A170EE66E91
:1013B000E66ACEEC12F00B6E060EE15E0B5081EF8A
:1013C0000CF0020E0001705D03E1DEEC0DF001D0C7
:1013D0004ED81200D9CFE6FFE1CFD9FFE6526BC05D
:1013E000E9FF6CC0EAFFEF50400B01E0010EDF6E39
:1013F00000016B75080E605D0AE122C46EFF6E503D
:10140000000803E2100E606F02D0040E606F7005DA
:1014100028E16BC0E9FF6CC0EAFF020EE926000E6E
:10142000EA22280EEE6E040EED6E3DDB020E000188
:101430006F5D07E16BC0E9FF6CC0EAFF840EEF6EE1
:101440000FD0DF5007E16BC0E9FF6CC0EAFFC80EA8
:10145000EF6E06D06BC0E9FF6CC0EAFF880EEF6E3E
:1014600001D005D8E552E552E7CFD9FF1200D9CF18
:10147000E6FFE1CFD9FF030EE126020E0001705D09
:101480004AE16D50100B47E063C0E9FF64C0EAFF1A
:10149000EE52EF500B6E0C6A080E0B1801E10C5067
:1014A0003AE163C0E9FF64C0EAFFEF503C0BE84259
:1014B000E8420D0830E165C0E9FF66C0EAFFEF5081
:1014C000800B29E165C0E9FF66C0EAFF020EE9264C
:1014D000000EEA22200EEE6E040EED6EDF6ADF5083
:1014E0000B6E0C6A080E0B5C000E0C5813E2DF50FA
:1014F000EA6A280FE96E040EEA22EF50E66EDF502A
:10150000EA6A200FE96E040EEA22E552E750EF6E18
:10151000DF2AE5D731D0706B65C0E9FF66C0EAFF0E
:10152000EE52080EEF6E65C0E9FF66C0EAFF020EDC
:10153000E926000EEA22200EEE6E040EED6E65C066
:10154000E9FF66C0EAFF8C0EEF6E6BC0E9FF6CC06E
:10155000EAFFEF6A040E6B190B6E6CC00CF0010E03
:101560000BC0DBFF020E0CC0DBFF010EDBCFE9FF7F
:10157000020EDBCFEAFFEF6A000178AF0CD07B519F
:101580007C1107E005D07CC0FAFF00017B51F96EA9
:10159000FADF0001789F030EE15C02E2E16AE552A6
:1015A000E16EE552E7CFD9FF120004012051600B34
:1015B000E842E842E842E842E842000901E058D047
:1015C00021510C0A54E00B0A43E00C0A35E0010AF1
:1015D00026E00B0A22E0020A20E0030A1CE0080AC7
:1015E00010E0010A0CE00F0A08E0030A01E03FD016
:1015F0000001738F080E606F3BD0C8D839D06FDB05
:1016000037D00001610E716F000E726F7381010E91
:10161000746F738F2DD014D92BD02BD829D024518F
:101620000001716F726B620E7127000E722373815D
:10163000010E746F738F1CD00001738F040124514D
:10164000EA6A620FE96E000EEA2222C4EFFF10D0B0
:10165000000EE66EE66AE66EE66A160EE66EE66A6C
:10166000CEEC12F00B6E060EE15E0B5001D000D0F6
:101670001200D9CFE6FFE1CFD9FF040EE126040125
:10168000220510E120511F0B00090CE10001738FAE
:10169000030E0401215D04E10001010E7F6F02D001
:1016A00000017F6B0401225167E120511F0B0208EA
:1016B00063E124510F0B00095FE00001738F040107
:1016C00024BF10D024510F0BE96EEA6AD890E93696
:1016D000EA36670EE926000EEA22EECFDEFFEDCFF6
:1016E000DDFF0FD024510F0BE96EEA6AD890E9367E
:1016F000EA366B0EE926000EEA22EECFDEFFEDCFD2
:10170000DDFF030E215D07E1DECFE9FFDDCFEAFF5C
:10171000840EEF6E31D024510F0B0C6A700F0B6EDC
:101720000F0E0C22020E0BC0DBFF030E0CC0DBFF02
:10173000020EDBCFE9FF030EDBCFEAFFEE90ED52A6
:1017400024AF0DD0DECFE9FFDDCFEAFFEF6ADF7413
:10175000DECFE9FFDDCFEAFF400EEF6E0DD0DECF2A
:10176000E9FFDDCFEAFF880EEF6EDF74DECFE9FF21
:10177000DDCFEAFFC80EEF6E040EE15C02E2E16A23
:10178000E552E16EE552E7CFD9FF1200800E040169
:10179000205D55E10001C00E736F04012351030A5F
:1017A0002EE0010A0EE0030A03E00001736B47D04C
:1017B00000011E0E716F270E726F120E746F756B23
:1017C0003ED02251F66EF76AD890F636F736FB0E09
:1017D000F626270EF7220900F5CF71F00A00F5CFA3
:1017E00072F0020E0001F76A7125F66E7251F7224F
:1017F0000900F5CF74F00A00F5CF75F020D0030E84
:10180000225D1AE22251F66EF76AD890F636F73664
:10181000FD0EF626270EF7220900F5CF71F00A001B
:10182000F5CF72F071C0F6FF72C0F7FF0800F550F7
:101830000001746F756B02D00001736B00D0120051
:10184000D9CFE6FFE1CFD9FF020EE1260401286BD4
:10185000296B20511F0B020A12E0030A0DE0010A56
:1018600001E03BD00001738F0401288100017F0556
:1018700002E10401288331D00001738F2ED00001D2
:10188000738F040124BF10D024510F0BE96EEA6A54
:10189000D890E936EA36670EE926000EEA22EECF46
:1018A000DEFFEDCFDDFF0FD024510F0BE96EEA6AAA
:1018B000D890E936EA366B0EE926000EEA22EECF22
:1018C000DEFFEDCFDDFFDECFE9FFDDCFEAFFEF503A
:1018D000040B02E0010E286F00D0000173AF07D0A7
:1018E000280E716F040E726F7381020E746F020EF8
:1018F000E15C02E2E16AE552E16EE552E7CFD9FF31
:1019000012006D98000173BF4AD078AF28D0020E44
:10191000706F6BC0E9FF6CC0EAFFEE52EF6A6BC0FC
:10192000E9FF6CC0EAFFC80EEF6E65C0E9FF66C054
:10193000EAFFEE52080EEF6E65C0E9FF66C0EAFFEF
:10194000020EE926000EEA22280EEE6E040EED6E5F
:1019500065C0E9FF66C0EAFFC80EEF6E1FD065C024
:10196000E9FF66C0EAFFEE52080EEF6E65C0E9FFC0
:1019700066C0EAFF020EE926000EEA22200EEE6E95
:10198000040EED6E65C0E9FF66C0EAFF8C0EEF6ED7
:101990006BC0E9FF6CC0EAFF840EEF6E83D078BFA6
:1019A00081D0040120AF56D0000174510401265D9E
:1019B000000175510401275904E226C474F027C4BC
:1019C00075F071D80001010E706F65C0E9FF66C047
:1019D000EAFFEE52080EEF6E65C0E9FF66C0EAFF4F
:1019E000020EE926000EEA22200EEE6E040EED6EC7
:1019F00065C0E9FF66C0EAFF800EEF6E63C0E9FFD5
:101A000064C0EAFFEE52080EEF6E63C0E9FF64C0E7
:101A1000EAFF020EE926000EEA22200EEE6E040E08
:101A2000ED6E63C0E9FF64C0EAFF800EEF6E6BC02D
:101A3000E9FF6CC0EAFF020EE926000EEA22280E3A
:101A4000EE6E040EED6E6BC0E9FF6CC0EAFFC80ECF
:101A5000EF6E28D00001020E706F6BC0E9FF6CC002
:101A6000EAFFEE52EF6A6BC0E9FF6CC0EAFFC80EF6
:101A7000EF6E65C0E9FF66C0EAFFEE52080EEF6E3A
:101A800065C0E9FF66C0EAFF020EE926000EEA2201
:101A9000280EEE6E040EED6E65C0E9FF66C0EAFF2B
:101AA000C80EEF6E1200D9CFE6FFE1CFD9FF020ECC
:101AB000E1260001080E745D000E75590EE274C037
:101AC000DEFF75C0DDFF6F5103E1010E6F6F04D0C3
:101AD0006F0502E1020E6F6F03D0080EDE6EDD6A45
:101AE0006BC0E9FF6CC0EAFFEF926BC0E9FF6CC00E
:101AF000EAFFEF906BC0E9FF6CC0EAFF010EDB501C
:101B0000EF126BC0E9FF6CC0EAFFEE52DFCFEFFFD0
:101B1000000EDB50745F010EDB50755B280E7D6F8D
:101B2000040E7E6F73B121D0D9CFE9FFDACFEAFF7F
:101B3000EE50ED1019E071C0F6FF72C0F7FF712B87
:101B4000000E72230800F550E66E7DC0E9FF7EC0EE
:101B5000EAFF7D2B000E7E23E552E750EF6EDF0695
:101B6000010E01E2DB06E0D71FD0D9CFE9FFDACFC3
:101B7000EAFFEE50ED1018E071C0E9FF72C0EAFF15
:101B8000712B000E7223EF50E66E7DC0E9FF7EC020
:101B9000EAFF7D2B000E7E23E552E750EF6EDF0655
:101BA000010E01E2DB06E1D7020EE15C02E2E16A2E
:101BB000E552E16EE552E7CFD9FF1200D9CFE6FF3B
:101BC000E1CFD9FF020EE12663C0E9FF64C0EAFF5E
:101BD000EE52EFCFDFFFDFCF0BF00B500001795D4E
:101BE000000E7A5903E279C0DFFF09D0DF500B6E97
:101BF0000C6A0B50795D796F0C507A597A6F010E2F
:101C0000DB6ADF50F36E010EDBCFF4FFF350F45CC0
:101C100016E2010EDB50EA6A280FE96E040EEA2292
:101C2000EF50E66E76C0E9FF77C0EAFF762B000E34
:101C30007723E552E750EF6E010EDB2AE2D7000E64
:101C4000D8807955000E7A5528E265C0E9FF66C054
:101C5000EAFFEE52080EEF6E65C0E9FF66C0EAFFCC
:101C6000020EE926000EEA22280EEE6E040EED6E3C
:101C700063C0E9FF64C0EAFFEF50400B07E165C0B5
:101C8000E9FF66C0EAFFC80EEF6E06D065C0E9FF47
:101C900066C0EAFF880EEF6E18D065C0E9FF66C027
:101CA000EAFF020EE926000EEA22200EEE6E040E76
:101CB000ED6E7B517C1107E005D07CC0FAFF00017E
:101CC0007B51F96EFADF0001789F020EE15C02E2BF
:101CD000E16AE552E16EE552E7CFD9FF120000015B
:101CE000738F000EE66EE66AE66A710EE66E0F0E00
:101CF000E66E51EC14F00B6E050EE15E0B50010E1A
:101D0000E66EE66AE66A620EE66E000EE66E51EC7C
:101D100014F00B6E050EE15E0B5022C461F004015D
:101D2000225104E10001100E606F11D00001200E5D
:101D3000606F000EE66EE66AE66EE66A150EE66E07
:101D4000E66ACEEC12F00B6E060EE15E0B5012004E
:101D5000D9CFE6FFE1CFD9FF020EE126000EDE6EFD
:101D6000040EDD6EFD0EDB50E8240D6EFE0EDB5022
:101D7000040DF3500D24040DF3500B6E0C6A020E8B
:101D80000F0B05E0D8900C320B32E806FBE1D8903F
:101D90000B360C36D8900B360C36D9CFE9FFDACF9C
:101DA000EAFF0B50EE260C50ED22DECFE9FFDDCF2F
:101DB000EAFFEF9EFD0EDB500FE1FE0EEA6ADB3418
:101DC000FE0BEA36E96E670EE926000EEA22DECF48
:101DD000EEFFDDCFEDFF0ED0FE0EEA6ADB34FE0B28
:101DE000EA36E96E6B0EE926000EEA22DECFEEFF40
:101DF000DDCFEDFFDECFE9FFDDCFEAFFEF9CDECFE9
:101E0000E9FFDDCFEAFF040EE926000EEA22EF8C9F
:101E1000020EE15C02E2E16AE552E16EE552E7CFD3
:101E2000D9FF1200D9CFE6FFE1CFD9FF020EE1269C
:101E3000FE0EDB500C6A700F0B6E0F0E0C220BC0E7
:101E4000DEFF0CC0DDFFDECFE9FFDDCFEAFFFD0ED8
:101E5000DBCFEFFFDBA407D0E66AFE0EDBCFE6FFA9
:101E600077DFE552E552FD0EDBA208D0010EE66EEB
:101E7000FE0EDBCFE6FF6CDFE552E552020EE15CC1
:101E800002E2E16AE552E16EE552E7CFD9FF1200C6
:101E9000D9CFE6FFE1CFD9FF020EE126FE0EDB50DF
:101EA00020E165C0E9FF66C0EAFFEE52080EEF6E62
:101EB00065C0E9FF66C0EAFF020EE926000EEA22CD
:101EC000200EEE6E040EED6E65C0E9FF66C0EAFFFF
:101ED0008C0EEF6E6BC0E9FF6CC0EAFF840EEF6EF4
:101EE0003DD0FD0EDB50E8240D6EFE0EDB50040DE0
:101EF000F3500D24040DF3CF0BF0F4CF0CF0000ED3
:101F00000B26040E0C220BC0DEFF0CC0DDFF840E7E
:101F10000B6EDECFE9FFDDCFEAFF0B50EF12FD0EB7
:101F2000DB50E8240D6EFE0EDB50040DF3500D2443
:101F3000010F040DF3CF0BF0F4CF0CF0000E0B26C5
:101F4000040E0C220BC0DEFF0CC0DDFF840E0B6EF6
:101F5000DECFE9FFDDCFEAFF0B50EF12020EE15CAE
:101F600002E2E16AE552E16EE552E7CFD9FF1200E5
:101F7000D9CFE6FFE1CFD9FF020EE126FD0EDB50FF
:101F80000FE0FE0EEA6ADB34FE0BEA36E96E6B0EFA
:101F9000E926000EEA22EECFDEFFEDCFDDFF0ED008
:101FA000FE0EEA6ADB34FE0BEA36E96E670EE926BE
:101FB000000EEA22EECFDEFFEDCFDDFFDECFE9FF40
:101FC000DDCFEAFF020EE926000EEA22FB0EDBCF90
:101FD000EEFFFC0EDBCFEDFFDECFE9FFDDCFEAFF4A
:101FE000EE52FA0EDBCFEFFF400E0B6EDECFE9FFB5
:101FF000DDCFEAFF0B50EF16880E0B6EDECFE9FF48
:10200000DDCFEAFF0B50EF12FD0EDB500CE0FE0EB1
:10201000EA6ADB34FE0BEA36E96E6B0EE926000E47
:10202000EA22EF740BD0FE0EEA6ADB34FE0BEA36CE
:10203000E96E670EE926000EEA22EF74DECF0BF0A0
:10204000DDCF0CF00BC0F3FF0CC0F4FF020EE15C1F
:1020500003E200D0E16AE552E16EE552E7CFD9FF35
:102060001200D9CFE6FFE1CFD9FF010EF36EFC0ECF
:10207000DB5004E0D890F336E806FCE1F350E81CAE
:102080000B6EFD0EDBCFE9FFFE0EDBCFEAFF0B5040
:10209000EF16E552E7CFD9FF120005D06D6A696AE5
:1020A0000001606B00D012000001605111E16D6A07
:1020B000696A6DB602D06D86FCD70001010E606FB3
:1020C000160E6F6ED08E3B0E696EA28AA08AF28EBB
:0220D0001200FC
:0E20D200DACFE4FFE2CFDAFFE9CFE4FFEACF96
:1020E000E4FFF6CFE4FFF7CFE4FFF5CFE4FFF3CF53
:1020F000E4FFF4CFE4FFFACFE4FF00EE00F00B0EB4
:10210000E80403E3EECFE4FFFBD700EE0BF0030E91
:10211000E80403E3EECFE4FFFBD7E6526EEC08F0F1
:10212000E55200EE0DF0030EE80403E3E5CFEDFF0A
:10213000FBD700EE0AF00B0EE80403E3E5CFEDFF5A
:10214000FBD7E5CFFAFFE5CFF4FFE5CFF3FFE5CF0F
:10215000F5FFE5CFF7FFE5CFF6FFE5CFEAFFE5CFE7
:10216000E9FFE5CFDAFF1100D8CFE4FFE0CFE4FFCD
:10217000E46EDACFE4FFE2CFDAFFE652E552E5CFD4
:10218000DAFFE550E5CFE0FFE5CFD8FF100005D836
:1021900054EC10F01BD8FED71200010EC26E0B0ECD
:1021A000C16E350EC06E3F0E926E936ECF0E946E62
:1021B00002D81CEF08F000018B6B8BC08AF08BC03B
:1021C00089F0010E876F8C6B8D6B1200200E000161
:1021D000605D03E36D50020B01E001D001D81200F5
:1021E000D9CFE6FFE1CFD9FF050EE1268150100BD4
:1021F00009E1040EDB0406E100019F718A7E040EF2
:10220000DB6A08D08150100B01E0010EE76E040E6E
:10221000E7CFDBFF00019F5101E08BD08A9E0401D4
:102220007F0E356F366F81B403D0020EDB6A1CD08F
:1022300081B605D0020EF36EF3CFDBFF15D081B06F
:1022400006D0040EF36E020EF3CFDBFF0DD081B289
:1022500006D0060EF36E020EF3CFDBFF05D0080E9C
:10226000F36E020EF3CFDBFF8150040B09E18150C6
:10227000080B06E1010EF36E020EF3CFDBFF23D055
:102280008150080B09E18150010B06E1030EF36E4A
:10229000020EF3CFDBFF17D08150010B09E1815013
:1022A000020B06E1050EF36E020EF3CFDBFF0BD03F
:1022B0008150020B08E18150040B05E1070EF36E1B
:1022C000020EF3CFDBFF020EDB50080A2DE00F0AEF
:1022D00028E0010A22E0030A1DE0010A17E0070ACC
:1022E00012E0010A0CE0030A07E0010A01E020D035
:1022F0007F0E336F346B1CD03369346B19D0336964
:102300007F0E346F15D03369346912D07F0E336F6E
:1023100034690ED0336B34690BD0336B7F0E346F5E
:1023200007D0336B346B04D07F0E336F346F00D023
:1023300093D08A8E81B403D00401376B15D081B657
:1023400004D00401020E376F0FD081B004D0040115
:10235000040E376F09D081B204D00401060E376F26
:1023600003D00401080E376F8150040B06E1815041
:10237000080B03E1010E376F1AD08150080B06E1FC
:102380008150010B03E1030E376F11D08150010B17
:1023900006E18150020B03E1050E376F08D0815032
:1023A000020B05E18150040B02E1070E376F0001BB
:1023B000A151030A3BE0010A2BE0030A1AE0010ADB
:1023C00001E042D0A05105E1090EC26EC282010EA9
:1023D000A06FC2B20DD0A06BC4500B6E0C6AFF0E82
:1023E000D8800B56000E0C560BC08EF0010EA16F5C
:1023F0002BD0A05105E10D0EC26EC282010EA06F5E
:10240000C2B205D0A06BC4CF8FF0020EA16F1CD05A
:10241000A05104E1010EC26EC282A06FC2B205D00B
:10242000A06BC4CF90F0030EA16F0ED0A05105E1B8
:10243000050EC26EC282010EA06FC2B204D0A06BA4
:10244000C4CF91F0A16B00D08EC033F48FC034F4B0
:1024500090C035F491C036F40401386B82BE02D0CE
:10246000388101D0389182B202D0388301D03893BC
:1024700082BC02D0388501D0389582B402D038872A
:1024800001D0389780B802D0388901D0389981BA04
:1024900002D0388B01D0389B80BA02D0388D01D061
:1024A000389D82B002D0388F01D0389F00018C5106
:1024B0008D1102E1000E08D08CC0E9FF8DC0EAFF4B
:1024C000EF50800B01E0010E000913E1060EE66EED
:1024D000330EE66E040EE66E010EE66EE66EB8ECA6
:1024E0000FF00B6E050EE15E0B50F3CF8CF0F4CFC6
:1024F0008DF0050EE15C02E2E16AE552E16EE55223
:10250000E7CFD9FF1200D9CFE6FFE1CFD9FFFE0E0A
:10251000DB50010BE8B0C284E8A0C294FE0EDB5091
:10252000020BE8407F0BE8B0C286E8A0C296FE0E20
:10253000DB50040BE840E8403F0BE8B0C288E8A05D
:10254000C298FE0EDB50080BE840E840E8401F0B45
:10255000E8B0C28AE8A0C29AE552E7CFD9FF1200DC
:10256000120012001200120019EF13F012001A0EDE
:10257000E66E010EE66E12EC0FF0E552E552120027
:102580006D840001080E926F070E936F9207000E84
:10259000935B92519311FAE16D941200D9CFE6FF4B
:1025A000E1CFD9FFFD0EDBCF06F0FE0EDBCF07F04B
:1025B000010E061801E1075033E0E868061802E151
:1025C000E86807182BE0030E061801E1075024E025
:1025D000040E061801E107501DE0020E061801E185
:1025E000075016E0170E061801E107500FE0160E0F
:1025F000061801E1075008E0150E061801E1075022
:1026000001E010D0B4DF0FD0B1DF0DD0ADDF0BD0C3
:10261000A9DF09D0A5DF07D0A4DF05D0A4DF03D050
:10262000000001D000D0010E00D0E552E7CFD9FF65
:02263000120096
:0E263200040120511F0B010801E06DD024515E
:1026400001E06AD0060E215D28E12351230A21E032
:10265000010A11E0030A01E020D0000161050AE14E
:102660000001420E716F270E726F090E746F756B49
:10267000C00E736F12D0000161050AE10001B80EAF
:10268000716F270E726F430E746F756BC00E736F90
:1026900004D00001800E736F00D004012051600B44
:1026A000E842E842E842E842E842010801E034D06A
:1026B00021510B0A2BE0080A1EE0090A16E0080A5D
:1026C00009E00B0A05E0080A01E026D026D824D04C
:1026D00025D822D00001A20E716F000E726F010E7C
:1026E000746F756BC10E736F17D00001800E736F1E
:1026F00023C4A2F011D00001A30E716F000E726FFF
:10270000010E746F756B810E736F06D00001800E21
:0E271000736F22C4A3F000D01200120012005A
:02271E001201A6
:10272000000200000008D8041A000701010200019D
:102730000902260001010080FA09040000010301DA
:10274000000009211001210122430007058103082F
:10275000000A0403090434034D0069006300720099
:102760006F0063006800690070002000540065007D
:10277000630068006E006F006C006F0067007900F6
:10278000200049006E0063002E002E0343007900F4
:10279000740072006F006E002000470061006D0041
:1027A0006500200043006F006E00740072006F002F
:1027B0006C006C006500720005010904A101A10212
:1027C00075089504150026FF00350046FF00093006
:1027D0000931093209358102750895012507463B03
:1027E0000165140939814265007501950825014587
:1027F000010509190129088102C0C0302752275656
:03280000278A27FD
:0C2804002A0EF66E100EF76E000EF86E35
:1028100000010900F550996F0900F5509A6F03E126
:10282000996701D03DD00900F550946F0900F5502B
:10283000956F0900F550966F09000900F550E96E93
:102840000900F550EA6E090009000900F550976F7C
:102850000900F550986F09000900F6CF9BF0F7CFFB
:102860009CF0F8CF9DF094C0F6FF95C0F7FF96C09E
:10287000F8FF0001975302E1985307E00900F55073
:10288000EE6E9707F8E29807F9D79BC0F6FF9CC059
:10289000F7FF9DC0F8FF00019907000E9A5BBFD7B4
:0228A000120024
:0E28A200FE0EE3CFE9FFFF0EE3CFEAFFE9CF22
:1028B000F3FFEACFF4FFFB0EE35003E1FC0EE3501D
:1028C00009E0FB0EE30602E2FC0EE306FD0EE35018
:0628D000EE6EF1D71200CC
:0A28D60013EE00F023EE00F0F86AA4
:1028E0000A9C02EC14F084EC14F0C7EC10F0FBD757
:0228F0001200D4
:0E28F20000EE00F00F0EEE6AEA62FDD7120053
:08290000FCFCFC0004040400CF
:022908001200BB
:04290A0000000000C9
:020000040030CA
:0100000024DB
:010001000EF0
:010002003FBE
:010003001EDE
:010005008179
:010006008178
:010008000FE8
:01000900C036
:01000A000FE6
:01000B00E014
:01000C000FE4
:01000D0040B2
:00000001FF
