:020000040000FA
:0600000028EF04F01200DD
:0600080004EF08F01200F5
:02000E00FCFCF8
:06001000FC0004040400E2
:060018000CEF08F01200DD
:02001E000100DF
:0C0020000E1000009E0000000400000014
:04002C00DACFE4FF44
:10003000E2CFDAFFE9CFE4FFEACFE4FFF6CFE4FF57
:10004000F7CFE4FFF5CFE4FFF3CFE4FFF4CFE4FF15
:10005000FACFE4FF00EE00F00B0EE80403E3EECF6E
:10006000E4FFFBD700EE0BF0030EE80403E3EECF52
:10007000E4FFFBD7E65261EC08F0E55200EE0DF02C
:10008000030EE80403E3E5CFEDFFFBD700EE0AF033
:100090000B0EE80403E3E5CFEDFFFBD7E5CFFAFF56
:1000A000E5CFF4FFE5CFF3FFE5CFF5FFE5CFF7FFB1
:1000B000E5CFF6FFE5CFEAFFE5CFE9FFE5CFDAFFD1
:1000C0001100D8CFE4FFE0CFE4FFE46EDACFE4FF25
:1000D000E2CFDAFFE652E552E5CFDAFFE550E5CFB1
:1000E000E0FFE5CFD8FF100005D847EC10F01BD893
:1000F000FED71200010EC26E0B0EC16E350EC06E21
:100100003F0E926E936ECF0E946E02D80FEF08F0F2
:1001100000018B6B8BC08AF08BC089F0010E876F5A
:100120008C6B8D6B1200200E0001605D03E36D503F
:10013000020B01E001D001D81200D9CFE6FFE1CFD8
:10014000D9FF050EE1268150100B09E1040EDB04F6
:1001500006E100019F718A7E040EDB6A08D081509F
:10016000100B01E0010EE76E040EE7CFDBFF00018C
:100170009F5101E08BD08A9E04017F0E356F366F50
:1001800081B403D0020EDB6A1CD081B605D0020E0A
:10019000F36EF3CFDBFF15D081B006D0040EF36E03
:1001A000020EF3CFDBFF0DD081B206D0060EF36E48
:1001B000020EF3CFDBFF05D0080EF36E020EF3CF75
:1001C000DBFF8150040B09E18150080B06E1010EB1
:1001D000F36E020EF3CFDBFF23D08150080B09E151
:1001E0008150010B06E1030EF36E020EF3CFDBFF2D
:1001F00017D08150010B09E18150020B06E1050E79
:10020000F36E020EF3CFDBFF0BD08150020B08E13F
:100210008150040B05E1070EF36E020EF3CFDBFFF6
:10022000020EDB50080A2DE00F0A28E0010A22E046
:10023000030A1DE0010A17E0070A12E0010A0CE0B8
:10024000030A07E0010A01E020D07F0E336F346B10
:100250001CD03369346B19D033697F0E346F15D0DD
:100260003369346912D07F0E336F34690ED0336B2B
:1002700034690BD0336B7F0E346F07D0336B346B24
:1002800004D07F0E336F346F00D093D08A8E81B448
:1002900003D00401376B15D081B604D00401020EDF
:1002A000376F0FD081B004D00401040E376F09D02E
:1002B00081B204D00401060E376F03D00401080E8A
:1002C000376F8150040B06E18150080B03E1010EEA
:1002D000376F1AD08150080B06E18150010B03E102
:1002E000030E376F11D08150010B06E18150020BD4
:1002F00003E1050E376F08D08150020B05E18150F4
:10030000040B02E1070E376F0001A151030A3BE025
:10031000010A2BE0030A1AE0010A01E042D0A051D1
:1003200005E1090EC26EC282010EA06FC2B20DD0ED
:10033000A06BC4500B6E0C6AFF0ED8800B56000EDB
:100340000C560BC08EF0010EA16F2BD0A05105E111
:100350000D0EC26EC282010EA06FC2B205D0A06B9C
:10036000C4CF8FF0020EA16F1CD0A05104E1010E8A
:10037000C26EC282A06FC2B205D0A06BC4CF90F093
:10038000030EA16F0ED0A05105E1050EC26EC28210
:10039000010EA06FC2B204D0A06BC4CF91F0A16BCC
:1003A00000D08EC033F48FC034F490C035F491C0C7
:1003B00036F40401386B82BE02D0388101D0389106
:1003C00082B202D0388301D0389382BC02D0388503
:1003D00001D0389582B402D0388701D0389780B8E0
:1003E00002D0388901D0389981BA02D0388B01D037
:1003F000389B80BA02D0388D01D0389D82B002D0AF
:10040000388F01D0389F00018C518D1102E1000E10
:1004100008D08CC0E9FF8DC0EAFFEF50800B01E0EF
:10042000010E000913E1060EE66E330EE66E040EB1
:10043000E66E010EE66EE66EABEC0FF00B6E050E8F
:10044000E15E0B50F3CF8CF0F4CF8DF0050EE15C44
:1004500002E2E16AE552E16EE552E7CFD9FF120010
:10046000D9CFE6FFE1CFD9FFFE0EDB50010BE8B09C
:10047000C284E8A0C294FE0EDB50020BE8407F0B62
:10048000E8B0C286E8A0C296FE0EDB50040BE8403E
:10049000E8403F0BE8B0C288E8A0C298FE0EDB50EF
:1004A000080BE840E840E8401F0BE8B0C28AE8A02B
:1004B000C29AE552E7CFD9FF1200120012001200D3
:1004C0001200C6EF02F012001A0EE66E010EE66E82
:1004D00005EC0FF0E552E55212006D840001080EA4
:1004E000926F070E936F9207000E935B92519311D8
:1004F000FAE16D941200D9CFE6FFE1CFD9FFFD0EEE
:10050000DBCF06F0FE0EDBCF07F0010E061801E18F
:10051000075033E0E868061802E1E86807182BE0A6
:10052000030E061801E1075024E0040E061801E14D
:1005300007501DE0020E061801E1075016E0170EE5
:10054000061801E107500FE0160E061801E10750EA
:1005500008E0150E061801E1075001E010D0B4DFE5
:100560000FD0B1DF0DD0ADDF0BD0A9DF09D0A5DFF3
:1005700007D0A4DF05D0A4DF03D0000001D000D055
:0C058000010E00D0E552E7CFD9FF1200B9
:04058C0004012051F5
:100590001F0B010801E06DD0245101E06AD0060E66
:1005A000215D28E12351230A21E0010A11E0030A19
:1005B00001E020D0000161050AE100019C0E716F8D
:1005C000060E726F090E746F756BC00E736F12D0CA
:1005D000000161050AE10001120E716F070E726FD2
:1005E000430E746F756BC00E736F04D00001800EE4
:1005F000736F00D004012051600BE842E842E842EA
:10060000E842E842010801E034D021510B0A2BE016
:10061000080A1EE0090A16E0080A09E00B0A05E0CC
:10062000080A01E026D026D824D025D822D00001FF
:10063000A20E716F000E726F010E746F756BC10E9A
:10064000736F17D00001800E736F23C4A2F011D016
:100650000001A30E716F000E726F010E746F756B47
:10066000810E736F06D00001800E736F22C4A3F059
:0806700000D01200120012007C
:0806780012010002000000085D
:10068000D8041A0007010102000109022600010135
:100690000080FA0904000001030100000921100193
:1006A00021012243000705810308000A040309040D
:1006B00034034D006900630072006F00630068003E
:1006C00069007000200054006500630068006E003F
:1006D0006F006C006F0067007900200049006E0019
:1006E00063002E002E0343007900740072006F0037
:1006F0006E002000470061006D006500200043008F
:100700006F006E00740072006F006C006C0065007A
:10071000720005010904A101A102750895041500E4
:1007200026FF00350046FF0009300931093209353E
:100730008102750895012507463B01651409398139
:100740004265007501950825014501050919012932
:0D075000088102C0C08A06AC06B006E406AF
:02075E001E0E6D
:10076000F66E000EF76E000EF86E00010900F550EF
:10077000996F0900F5509A6F03E1996701D03DD058
:100780000900F550946F0900F550956F0900F55078
:10079000966F09000900F550E96E0900F550EA6E00
:1007A000090009000900F550976F0900F550986F8E
:1007B00009000900F6CF9BF0F7CF9CF0F8CF9DF031
:1007C00094C0F6FF95C0F7FF96C0F8FF000197535D
:1007D00002E1985307E00900F550EE6E9707F8E242
:1007E0009807F9D79BC0F6FF9CC0F7FF9DC0F8FFA4
:0C07F00000019907000E9A5BBFD71200B1
:0407FC00FE0EE3CF3B
:10080000E9FFFF0EE3CFEAFFE9CFF3FFEACFF4FF02
:10081000FB0EE35003E1FC0EE35009E0FB0EE306A0
:1008200002E2FC0EE306FD0EE350EE6EF1D712007D
:10083000000EF36E00EE00F0080E01D81200EA6020
:1008400002D0EE6AFCD7F350E9601200EE6AFCD7E2
:1008500013EE00F023EE00F0F86A0A9CAFEC03F010
:0C08600003EC08F074EC00F0FBD7120071
:0610000028EF04F01200CD
:021006001200D6
:0610080016EF00F01200DB
:02100E000000E0
:021010000000DE
:0610180061EF00F0120080
:02101E00D9CF28
:10102000E6FFE1CFD9FFE6526A6A686A6D8C6D9C73
:101030006E6A000EE66EE66AE66A710EE66E0F0EE6
:10104000E66EFEEC03F00B6E050EE15E0B50DF6A00
:10105000DF500B6E0C6A080E0B5C000E0C5810E291
:10106000DF50040DF3CFE9FFF4CFEAFF000EE926CD
:10107000040EEA22EE6AEE6AEE6AEE6ADF2AE8D72A
:10108000160E706E68A60CD0030EE66E680EE66E45
:101090000F0EE66E24EC10F0E552E552E552F2D761
:1010A0000001736B786B796B7A6B6D98080E6B6FC0
:1010B000040E6C6F616B606BE552E552E7CFD9FFB0
:1010C0001200D9CFE6FFE1CFD9FFE652A19A000185
:1010D000600507E16DBA05D0686A69806988020E0B
:1010E000606F6850040B0FE06950040B0CE0020EB7
:1010F000E66E680EE66E0F0EE66E24EC10F0E5521A
:10110000E552E552E5D86DB29FD06850010B1BE067
:101110006950010B18E083DF0001040E606F0401C9
:10112000200E026F040E036F080E016F006B8C0E11
:101130000013E66A680EE66E0F0EE66E24EC10F001
:10114000E552E552E5526850100B0FE06950100B64
:101150000CE0A2D8040EE66E680EE66E0F0EE66E88
:1011600024EC10F0E552E552E5526850400B1DE0CA
:101170006950400B1AE0010EE66EE66A000EE66E5C
:10118000E66A020EE66EE66A7BEC02F00B6E060E75
:10119000E15E0B50060EE66E680EE66E0F0EE66E12
:1011A00024EC10F0E552E552E5526850200B04E0C3
:1011B0006950200B01E04DD86850020B12E06950D5
:1011C000020B0FE0010EE66EE66A000EE66EE66ABE
:1011D000E668E6687BEC02F00B6E060EE15E0B50F3
:1011E0006A6A040E0001605D01E22ED069A62CD06F
:1011F000DF6A040EDF5C28E268A625D06CCF80F0A1
:10120000030EE66E680EE66E0F0EE66E24EC10F02E
:10121000E552E552E552780E0001801502E177D8DB
:1012200010D0000EE66EE66A800EE66E000EE66EE8
:10123000010EE66EE66A7BEC02F00B6E060EE15ED6
:101240000B50DF2AD6D700D0E552E552E7CFD9FFC1
:10125000120070A015D063C0E9FF64C0EAFFEF5030
:1012600080080DE16BC0E9FF6CC0EAFFEF50840815
:1012700006E163C0E9FF64C0EAFF8C0EEF6E709078
:10128000050EE66E680EE66E0F0EE66E24EC10F0AC
:10129000E552E552E55212006984040EE66E680ECE
:1012A000E66E0F0EE66E24EC10F0E552E552E552C4
:1012B0006D82000EE66EE66AE66EE66A040EE66E83
:1012C000E66A7BEC02F00B6E060EE15E0B5012003C
:1012D0006D92000EE66EE66AE66EE66A030EE66E54
:1012E000E66A7BEC02F00B6E060EE15E0B50699431
:1012F00068A40CD0020EE66E680EE66E0F0EE66E67
:1013000024EC10F0E552E552E552F2D71200FD0E42
:101310000001801520E17E0E8015E8407F0B040D52
:10132000F3CF63F0F4CF64F0000E6327040E642360
:1013300063C065F064C066F0657563C0E9FF64C0B2
:10134000EAFFEF503C0BE842E8420D0802E109D801
:1013500001D02AD805D0FD0E8015040801E12DD852
:1013600012006BC0E9FF6CC0EAFFEF50800B05E094
:101370006BC0E9FF6CC0EAFFEF6A00016F6B706B36
:10138000746B756B736B04D9000EE66EE66AE66EDD
:10139000E66A170EE66EE66A7BEC02F00B6E060E4E
:1013A000E15E0B5074EF0CF0020E0001705D03E182
:1013B000D1EC0DF001D04ED81200D9CFE6FFE1CF2D
:1013C000D9FFE6526BC0E9FF6CC0EAFFEF50400B5B
:1013D00001E0010EDF6E00016B75080E605D0AE131
:1013E00022C46EFF6E50000803E2100E606F02D040
:1013F000040E606F700528E16BC0E9FF6CC0EAFF66
:10140000020EE926000EEA22280EEE6E040EED6EA4
:101410003DDB020E00016F5D07E16BC0E9FF6CC0B0
:10142000EAFF840EEF6E0FD0DF5007E16BC0E9FFDB
:101430006CC0EAFFC80EEF6E06D06BC0E9FF6CC04F
:10144000EAFF880EEF6E01D005D8E552E552E7CFEE
:10145000D9FF1200D9CFE6FFE1CFD9FF030EE12675
:10146000020E0001705D4AE16D50100B47E063C051
:10147000E9FF64C0EAFFEE52EF500B6E0C6A080EF3
:101480000B1801E10C503AE163C0E9FF64C0EAFFC8
:10149000EF503C0BE842E8420D0830E165C0E9FF3F
:1014A00066C0EAFFEF50800B29E165C0E9FF66C026
:1014B000EAFF020EE926000EEA22200EEE6E040E6E
:1014C000ED6EDF6ADF500B6E0C6A080E0B5C000ECF
:1014D0000C5813E2DF50EA6A280FE96E040EEA2284
:1014E000EF50E66EDF50EA6A200FE96E040EEA2242
:1014F000E552E750EF6EDF2AE5D731D0706B65C05B
:10150000E9FF66C0EAFFEE52080EEF6E65C0E9FF24
:1015100066C0EAFF020EE926000EEA22200EEE6EF9
:10152000040EED6E65C0E9FF66C0EAFF8C0EEF6E3B
:101530006BC0E9FF6CC0EAFFEF6A040E6B190B6E1B
:101540006CC00CF0010E0BC0DBFF020E0CC0DBFF09
:10155000010EDBCFE9FF020EDBCFEAFFEF6A0001ED
:1015600078AF0CD07B517C1107E005D07CC0FAFF2E
:1015700000017B51F96EFADF0001789F030EE15CF8
:1015800002E2E16AE552E16EE552E7CFD9FF1200CF
:1015900004012051600BE842E842E842E842E84298
:1015A000000901E058D021510C0A54E00B0A43E035
:1015B0000C0A35E0010A26E00B0A22E0020A20E0CC
:1015C000030A1CE0080A10E0010A0CE00F0A08E018
:1015D000030A01E03FD00001738F080E606F3BD01B
:1015E000C8D839D06FDB37D00001610E716F000EA3
:1015F000726F7381010E746F738F2DD014D92BD03D
:101600002BD829D024510001716F726B620E7127A3
:10161000000E72237381010E746F738F1CD0000152
:10162000738F04012451EA6A620FE96E000EEA2208
:1016300022C4EFFF10D0000EE66EE66AE66EE66AA0
:10164000160EE66EE66A7BEC02F00B6E060EE15EAD
:101650000B5001D000D01200D9CFE6FFE1CFD9FF67
:10166000040EE1260401220510E120511F0B0009A0
:101670000CE10001738F030E0401215D04E1000100
:10168000010E7F6F02D000017F6B0401225167E1E0
:1016900020511F0B020863E124510F0B00095FE08A
:1016A0000001738F040124BF10D024510F0BE96E89
:1016B000EA6AD890E936EA36670EE926000EEA2291
:1016C000EECFDEFFEDCFDDFF0FD024510F0BE96E23
:1016D000EA6AD890E936EA366B0EE926000EEA226D
:1016E000EECFDEFFEDCFDDFF030E215D07E1DECFA4
:1016F000E9FFDDCFEAFF840EEF6E31D024510F0BEE
:101700000C6A700F0B6E0F0E0C22020E0BC0DBFF6B
:10171000030E0CC0DBFF020EDBCFE9FF030EDBCFB5
:10172000EAFFEE90ED5224AF0DD0DECFE9FFDDCF22
:10173000EAFFEF6ADF74DECFE9FFDDCFEAFF400E9C
:10174000EF6E0DD0DECFE9FFDDCFEAFF880EEF6E42
:10175000DF74DECFE9FFDDCFEAFFC80EEF6E040EC7
:10176000E15C02E2E16AE552E16EE552E7CFD9FFC2
:101770001200800E0401205D55E10001C00E736F60
:1017800004012351030A2EE0010A0EE0030A03E0DC
:101790000001736B47D00001780E716F060E726FF7
:1017A000120E746F756B3ED02251F66EF76AD890A8
:1017B000F636F736550EF626070EF7220900F5CF56
:1017C00071F00A00F5CF72F0020E0001F76A712580
:1017D000F66E7251F7220900F5CF74F00A00F5CFCA
:1017E00075F020D0030E225D1AE22251F66EF76AE0
:1017F000D890F636F736570EF626070EF722090070
:10180000F5CF71F00A00F5CF72F071C0F6FF72C02B
:10181000F7FF0800F5500001746F756B02D00001EE
:10182000736B00D01200D9CFE6FFE1CFD9FF020ED3
:10183000E1260401286B296B20511F0B020A12E0DC
:10184000030A0DE0010A01E03BD00001738F04019F
:10185000288100017F0502E10401288331D00001C5
:10186000738F2ED00001738F040124BF10D0245138
:101870000F0BE96EEA6AD890E936EA36670EE92678
:10188000000EEA22EECFDEFFEDCFDDFF0FD02451B8
:101890000F0BE96EEA6AD890E936EA366B0EE92654
:1018A000000EEA22EECFDEFFEDCFDDFFDECFE9FF57
:1018B000DDCFEAFFEF50040B02E0010E286F00D0ED
:1018C000000173AF07D0280E716F040E726F738121
:1018D000020E746F020EE15C02E2E16AE552E16E13
:1018E000E552E7CFD9FF12006D98000173BF4AD0CF
:1018F00078AF28D0020E706F6BC0E9FF6CC0EAFFB2
:10190000EE52EF6A6BC0E9FF6CC0EAFFC80EEF6EE3
:1019100065C0E9FF66C0EAFFEE52080EEF6E65C0D3
:10192000E9FF66C0EAFF020EE926000EEA22280E51
:10193000EE6E040EED6E65C0E9FF66C0EAFFC80EEC
:10194000EF6E1FD065C0E9FF66C0EAFFEE52080ED9
:10195000EF6E65C0E9FF66C0EAFF020EE926000EE1
:10196000EA22200EEE6E040EED6E65C0E9FF66C041
:10197000EAFF8C0EEF6E6BC0E9FF6CC0EAFF840ECD
:10198000EF6E83D078BF81D0040120AF56D0000124
:1019900074510401265D000175510401275904E2C8
:1019A00026C474F027C475F071D80001010E706F61
:1019B00065C0E9FF66C0EAFFEE52080EEF6E65C033
:1019C000E9FF66C0EAFF020EE926000EEA22200EB9
:1019D000EE6E040EED6E65C0E9FF66C0EAFF800E94
:1019E000EF6E63C0E9FF64C0EAFFEE52080EEF6ECF
:1019F00063C0E9FF64C0EAFF020EE926000EEA2296
:101A0000200EEE6E040EED6E63C0E9FF64C0EAFFC7
:101A1000800EEF6E6BC0E9FF6CC0EAFF020EE92694
:101A2000000EEA22280EEE6E040EED6E6BC0E9FF8A
:101A30006CC0EAFFC80EEF6E28D00001020E706F76
:101A40006BC0E9FF6CC0EAFFEE52EF6A6BC0E9FFC2
:101A50006CC0EAFFC80EEF6E65C0E9FF66C0EAFF22
:101A6000EE52080EEF6E65C0E9FF66C0EAFF020E97
:101A7000E926000EEA22280EEE6E040EED6E65C019
:101A8000E9FF66C0EAFFC80EEF6E1200D9CFE6FF8D
:101A9000E1CFD9FF020EE1260001080E745D000EB1
:101AA00075590EE274C0DEFF75C0DDFF6F5103E1B2
:101AB000010E6F6F04D06F0502E1020E6F6F03D04D
:101AC000080EDE6EDD6A6BC0E9FF6CC0EAFFEF92C4
:101AD0006BC0E9FF6CC0EAFFEF906BC0E9FF6CC020
:101AE000EAFF010EDB50EF126BC0E9FF6CC0EAFFAA
:101AF000EE52DFCFEFFF000EDB50745F010EDB50C4
:101B0000755B280E7D6F040E7E6F73B121D0D9CF27
:101B1000E9FFDACFEAFFEE50ED1019E071C0F6FFF1
:101B200072C0F7FF712B000E72230800F550E66EAD
:101B30007DC0E9FF7EC0EAFF7D2B000E7E23E552CB
:101B4000E750EF6EDF06010E01E2DB06E0D71FD0A3
:101B5000D9CFE9FFDACFEAFFEE50ED1018E071C0FF
:101B6000E9FF72C0EAFF712B000E7223EF50E66EA0
:101B70007DC0E9FF7EC0EAFF7D2B000E7E23E5528B
:101B8000E750EF6EDF06010E01E2DB06E1D7020E41
:101B9000E15C02E2E16AE552E16EE552E7CFD9FF8E
:101BA0001200D9CFE6FFE1CFD9FF020EE12663C0D4
:101BB000E9FF64C0EAFFEE52EFCFDFFFDFCF0BF0AB
:101BC0000B500001795D000E7A5903E279C0DFFF06
:101BD00009D0DF500B6E0C6A0B50795D796F0C5099
:101BE0007A597A6F010EDB6ADF50F36E010EDBCF9C
:101BF000F4FFF350F45C16E2010EDB50EA6A280FA2
:101C0000E96E040EEA22EF50E66E76C0E9FF77C077
:101C1000EAFF762B000E7723E552E750EF6E010EB8
:101C2000DB2AE2D7000ED8807955000E7A5528E2DB
:101C300065C0E9FF66C0EAFFEE52080EEF6E65C0B0
:101C4000E9FF66C0EAFF020EE926000EEA22280E2E
:101C5000EE6E040EED6E63C0E9FF64C0EAFFEF5064
:101C6000400B07E165C0E9FF66C0EAFFC80EEF6EF2
:101C700006D065C0E9FF66C0EAFF880EEF6E18D097
:101C800065C0E9FF66C0EAFF020EE926000EEA22FF
:101C9000200EEE6E040EED6E7B517C1107E005D038
:101CA0007CC0FAFF00017B51F96EFADF0001789FDA
:101CB000020EE15C02E2E16AE552E16EE552E7CF35
:101CC000D9FF12000001738F000EE66EE66AE66A25
:101CD000710EE66E0F0EE66EFEEC03F00B6E050E57
:101CE000E15E0B50010EE66EE66AE66A620EE66E93
:101CF000000EE66EFEEC03F00B6E050EE15E0B507F
:101D000022C461F00401225104E10001100E606F51
:101D100011D00001200E606F000EE66EE66AE66EDE
:101D2000E66A150EE66EE66A7BEC02F00B6E060EB6
:101D3000E15E0B501200D9CFE6FFE1CFD9FF020ED2
:101D4000E126000EDE6E040EDD6EFD0EDB50E82493
:101D50000D6EFE0EDB50040DF3500D24040DF350F8
:101D60000B6E0C6A020E0F0B05E0D8900C320B3292
:101D7000E806FBE1D8900B360C36D8900B360C36C3
:101D8000D9CFE9FFDACFEAFF0B50EE260C50ED2257
:101D9000DECFE9FFDDCFEAFFEF9EFD0EDB500FE166
:101DA000FE0EEA6ADB34FE0BEA36E96E670EE926C0
:101DB000000EEA22DECFEEFFDDCFEDFF0ED0FE0EED
:101DC000EA6ADB34FE0BEA36E96E6B0EE926000E9A
:101DD000EA22DECFEEFFDDCFEDFFDECFE9FFDDCF84
:101DE000EAFFEF9CDECFE9FFDDCFEAFF040EE92634
:101DF000000EEA22EF8C020EE15C02E2E16AE5529B
:101E0000E16EE552E7CFD9FF1200D9CFE6FFE1CF6F
:101E1000D9FF020EE126FE0EDB500C6A700F0B6E2E
:101E20000F0E0C220BC0DEFF0CC0DDFFDECFE9FF82
:101E3000DDCFEAFFFD0EDBCFEFFFDBA407D0E66AC4
:101E4000FE0EDBCFE6FF77DFE552E552FD0EDBA2AB
:101E500008D0010EE66EFE0EDBCFE6FF6CDFE5522A
:101E6000E552020EE15C02E2E16AE552E16EE55202
:101E7000E7CFD9FF1200D9CFE6FFE1CFD9FF020E9D
:101E8000E126FE0EDB5020E165C0E9FF66C0EAFFF7
:101E9000EE52080EEF6E65C0E9FF66C0EAFF020E63
:101EA000E926000EEA22200EEE6E040EED6E65C0ED
:101EB000E9FF66C0EAFF8C0EEF6E6BC0E9FF6CC0F5
:101EC000EAFF840EEF6E3DD0FD0EDB50E8240D6E70
:101ED000FE0EDB50040DF3500D24040DF3CF0BF078
:101EE000F4CF0CF0000E0B26040E0C220BC0DEFF0C
:101EF0000CC0DDFF840E0B6EDECFE9FFDDCFEAFF05
:101F00000B50EF12FD0EDB50E8240D6EFE0EDB5081
:101F1000040DF3500D24010F040DF3CF0BF0F4CF9B
:101F20000CF0000E0B26040E0C220BC0DEFF0CC0C2
:101F3000DDFF840E0B6EDECFE9FFDDCFEAFF0B5035
:101F4000EF12020EE15C02E2E16AE552E16EE55257
:101F5000E7CFD9FF1200D9CFE6FFE1CFD9FF020EBC
:101F6000E126FD0EDB500FE0FE0EEA6ADB34FE0BCD
:101F7000EA36E96E6B0EE926000EEA22EECFDEFFAE
:101F8000EDCFDDFF0ED0FE0EEA6ADB34FE0BEA3643
:101F9000E96E670EE926000EEA22EECFDEFFEDCFF6
:101FA000DDFFDECFE9FFDDCFEAFF020EE926000EFE
:101FB000EA22FB0EDBCFEEFFFC0EDBCFEDFFDECF28
:101FC000E9FFDDCFEAFFEE52FA0EDBCFEFFF400E66
:101FD0000B6EDECFE9FFDDCFEAFF0B50EF16880E68
:101FE0000B6EDECFE9FFDDCFEAFF0B50EF12FD0EE7
:101FF000DB500CE0FE0EEA6ADB34FE0BEA36E96EDB
:102000006B0EE926000EEA22EF740BD0FE0EEA6A90
:10201000DB34FE0BEA36E96E670EE926000EEA2293
:10202000EF74DECF0BF0DDCF0CF00BC0F3FF0CC074
:10203000F4FF020EE15C03E200D0E16AE552E16EDA
:10204000E552E7CFD9FF1200D9CFE6FFE1CFD9FFA4
:10205000010EF36EFC0EDB5004E0D890F336E80678
:10206000FCE1F350E81C0B6EFD0EDBCFE9FFFE0E2A
:10207000DBCFEAFF0B50EF16E552E7CFD9FF120096
:1020800005D06D6A696A0001606B00D01200000122
:10209000605111E16D6A696A6DB602D06D86FCD738
:1020A0000001010E606F160E6F6ED08E3B0E696ED2
:0820B000A28AA08AF28E120040
:020000040030CA
:0100000024DB
:010001000EF0
:010002003FBE
:010003001EDE
:010005008179
:010006008178
:010008000FE8
:01000900C036
:01000A000FE6
:01000B00E014
:01000C000FE4
:01000D0040B2
:00000001FF
